{
  "_format": "hh-sol-artifact-1",
  "contractName": "CreativOps",
  "sourceName": "contracts/CreativOps.sol",
  "abi": [
    {
      "inputs": [
        {
          "internalType": "address",
          "name": "initialOwner",
          "type": "address"
        }
      ],
      "stateMutability": "nonpayable",
      "type": "constructor"
    },
    {
      "inputs": [
        {
          "internalType": "address",
          "name": "sender",
          "type": "address"
        },
        {
          "internalType": "uint256",
          "name": "tokenId",
          "type": "uint256"
        },
        {
          "internalType": "address",
          "name": "owner",
          "type": "address"
        }
      ],
      "name": "ERC721IncorrectOwner",
      "type": "error"
    },
    {
      "inputs": [
        {
          "internalType": "address",
          "name": "operator",
          "type": "address"
        },
        {
          "internalType": "uint256",
          "name": "tokenId",
          "type": "uint256"
        }
      ],
      "name": "ERC721InsufficientApproval",
      "type": "error"
    },
    {
      "inputs": [
        {
          "internalType": "address",
          "name": "approver",
          "type": "address"
        }
      ],
      "name": "ERC721InvalidApprover",
      "type": "error"
    },
    {
      "inputs": [
        {
          "internalType": "address",
          "name": "operator",
          "type": "address"
        }
      ],
      "name": "ERC721InvalidOperator",
      "type": "error"
    },
    {
      "inputs": [
        {
          "internalType": "address",
          "name": "owner",
          "type": "address"
        }
      ],
      "name": "ERC721InvalidOwner",
      "type": "error"
    },
    {
      "inputs": [
        {
          "internalType": "address",
          "name": "receiver",
          "type": "address"
        }
      ],
      "name": "ERC721InvalidReceiver",
      "type": "error"
    },
    {
      "inputs": [
        {
          "internalType": "address",
          "name": "sender",
          "type": "address"
        }
      ],
      "name": "ERC721InvalidSender",
      "type": "error"
    },
    {
      "inputs": [
        {
          "internalType": "uint256",
          "name": "tokenId",
          "type": "uint256"
        }
      ],
      "name": "ERC721NonexistentToken",
      "type": "error"
    },
    {
      "inputs": [
        {
          "internalType": "address",
          "name": "owner",
          "type": "address"
        }
      ],
      "name": "OwnableInvalidOwner",
      "type": "error"
    },
    {
      "inputs": [
        {
          "internalType": "address",
          "name": "account",
          "type": "address"
        }
      ],
      "name": "OwnableUnauthorizedAccount",
      "type": "error"
    },
    {
      "anonymous": false,
      "inputs": [
        {
          "indexed": true,
          "internalType": "address",
          "name": "owner",
          "type": "address"
        },
        {
          "indexed": true,
          "internalType": "address",
          "name": "approved",
          "type": "address"
        },
        {
          "indexed": true,
          "internalType": "uint256",
          "name": "tokenId",
          "type": "uint256"
        }
      ],
      "name": "Approval",
      "type": "event"
    },
    {
      "anonymous": false,
      "inputs": [
        {
          "indexed": true,
          "internalType": "address",
          "name": "owner",
          "type": "address"
        },
        {
          "indexed": true,
          "internalType": "address",
          "name": "operator",
          "type": "address"
        },
        {
          "indexed": false,
          "internalType": "bool",
          "name": "approved",
          "type": "bool"
        }
      ],
      "name": "ApprovalForAll",
      "type": "event"
    },
    {
      "anonymous": false,
      "inputs": [
        {
          "indexed": true,
          "internalType": "address",
          "name": "previousOwner",
          "type": "address"
        },
        {
          "indexed": true,
          "internalType": "address",
          "name": "newOwner",
          "type": "address"
        }
      ],
      "name": "OwnershipTransferred",
      "type": "event"
    },
    {
      "anonymous": false,
      "inputs": [
        {
          "indexed": true,
          "internalType": "address",
          "name": "from",
          "type": "address"
        },
        {
          "indexed": true,
          "internalType": "address",
          "name": "to",
          "type": "address"
        },
        {
          "indexed": true,
          "internalType": "uint256",
          "name": "tokenId",
          "type": "uint256"
        }
      ],
      "name": "Transfer",
      "type": "event"
    },
    {
      "inputs": [],
      "name": "MAX_SUPPLY",
      "outputs": [
        {
          "internalType": "uint256",
          "name": "",
          "type": "uint256"
        }
      ],
      "stateMutability": "view",
      "type": "function"
    },
    {
      "inputs": [
        {
          "internalType": "address",
          "name": "to",
          "type": "address"
        },
        {
          "internalType": "uint256",
          "name": "tokenId",
          "type": "uint256"
        }
      ],
      "name": "approve",
      "outputs": [],
      "stateMutability": "nonpayable",
      "type": "function"
    },
    {
      "inputs": [
        {
          "internalType": "address",
          "name": "owner",
          "type": "address"
        }
      ],
      "name": "balanceOf",
      "outputs": [
        {
          "internalType": "uint256",
          "name": "",
          "type": "uint256"
        }
      ],
      "stateMutability": "view",
      "type": "function"
    },
    {
      "inputs": [
        {
          "internalType": "uint256",
          "name": "tokenId",
          "type": "uint256"
        }
      ],
      "name": "burn",
      "outputs": [],
      "stateMutability": "nonpayable",
      "type": "function"
    },
    {
      "inputs": [
        {
          "internalType": "address",
          "name": "to",
          "type": "address"
        }
      ],
      "name": "buy",
      "outputs": [],
      "stateMutability": "payable",
      "type": "function"
    },
    {
      "inputs": [
        {
          "internalType": "uint256",
          "name": "tokenId",
          "type": "uint256"
        }
      ],
      "name": "getApproved",
      "outputs": [
        {
          "internalType": "address",
          "name": "",
          "type": "address"
        }
      ],
      "stateMutability": "view",
      "type": "function"
    },
    {
      "inputs": [
        {
          "internalType": "address",
          "name": "owner",
          "type": "address"
        },
        {
          "internalType": "address",
          "name": "operator",
          "type": "address"
        }
      ],
      "name": "isApprovedForAll",
      "outputs": [
        {
          "internalType": "bool",
          "name": "",
          "type": "bool"
        }
      ],
      "stateMutability": "view",
      "type": "function"
    },
    {
      "inputs": [
        {
          "internalType": "address",
          "name": "to",
          "type": "address"
        }
      ],
      "name": "mint",
      "outputs": [],
      "stateMutability": "nonpayable",
      "type": "function"
    },
    {
      "inputs": [],
      "name": "name",
      "outputs": [
        {
          "internalType": "string",
          "name": "",
          "type": "string"
        }
      ],
      "stateMutability": "view",
      "type": "function"
    },
    {
      "inputs": [],
      "name": "owner",
      "outputs": [
        {
          "internalType": "address",
          "name": "",
          "type": "address"
        }
      ],
      "stateMutability": "view",
      "type": "function"
    },
    {
      "inputs": [
        {
          "internalType": "uint256",
          "name": "tokenId",
          "type": "uint256"
        }
      ],
      "name": "ownerOf",
      "outputs": [
        {
          "internalType": "address",
          "name": "",
          "type": "address"
        }
      ],
      "stateMutability": "view",
      "type": "function"
    },
    {
      "inputs": [],
      "name": "price",
      "outputs": [
        {
          "internalType": "uint256",
          "name": "",
          "type": "uint256"
        }
      ],
      "stateMutability": "view",
      "type": "function"
    },
    {
      "inputs": [],
      "name": "renounceOwnership",
      "outputs": [],
      "stateMutability": "nonpayable",
      "type": "function"
    },
    {
      "inputs": [
        {
          "internalType": "address",
          "name": "from",
          "type": "address"
        },
        {
          "internalType": "address",
          "name": "to",
          "type": "address"
        },
        {
          "internalType": "uint256",
          "name": "tokenId",
          "type": "uint256"
        }
      ],
      "name": "safeTransferFrom",
      "outputs": [],
      "stateMutability": "nonpayable",
      "type": "function"
    },
    {
      "inputs": [
        {
          "internalType": "address",
          "name": "from",
          "type": "address"
        },
        {
          "internalType": "address",
          "name": "to",
          "type": "address"
        },
        {
          "internalType": "uint256",
          "name": "tokenId",
          "type": "uint256"
        },
        {
          "internalType": "bytes",
          "name": "data",
          "type": "bytes"
        }
      ],
      "name": "safeTransferFrom",
      "outputs": [],
      "stateMutability": "nonpayable",
      "type": "function"
    },
    {
      "inputs": [
        {
          "internalType": "address",
          "name": "operator",
          "type": "address"
        },
        {
          "internalType": "bool",
          "name": "approved",
          "type": "bool"
        }
      ],
      "name": "setApprovalForAll",
      "outputs": [],
      "stateMutability": "nonpayable",
      "type": "function"
    },
    {
      "inputs": [
        {
          "internalType": "uint256",
          "name": "_price",
          "type": "uint256"
        }
      ],
      "name": "setMintPrice",
      "outputs": [],
      "stateMutability": "nonpayable",
      "type": "function"
    },
    {
      "inputs": [
        {
          "internalType": "bytes4",
          "name": "interfaceId",
          "type": "bytes4"
        }
      ],
      "name": "supportsInterface",
      "outputs": [
        {
          "internalType": "bool",
          "name": "",
          "type": "bool"
        }
      ],
      "stateMutability": "view",
      "type": "function"
    },
    {
      "inputs": [],
      "name": "symbol",
      "outputs": [
        {
          "internalType": "string",
          "name": "",
          "type": "string"
        }
      ],
      "stateMutability": "view",
      "type": "function"
    },
    {
      "inputs": [
        {
          "internalType": "uint256",
          "name": "",
          "type": "uint256"
        }
      ],
      "name": "tokenURI",
      "outputs": [
        {
          "internalType": "string",
          "name": "",
          "type": "string"
        }
      ],
      "stateMutability": "pure",
      "type": "function"
    },
    {
      "inputs": [],
      "name": "totalSupply",
      "outputs": [
        {
          "internalType": "uint256",
          "name": "",
          "type": "uint256"
        }
      ],
      "stateMutability": "view",
      "type": "function"
    },
    {
      "inputs": [
        {
          "internalType": "address",
          "name": "from",
          "type": "address"
        },
        {
          "internalType": "address",
          "name": "to",
          "type": "address"
        },
        {
          "internalType": "uint256",
          "name": "tokenId",
          "type": "uint256"
        }
      ],
      "name": "transferFrom",
      "outputs": [],
      "stateMutability": "nonpayable",
      "type": "function"
    },
    {
      "inputs": [
        {
          "internalType": "address",
          "name": "newOwner",
          "type": "address"
        }
      ],
      "name": "transferOwnership",
      "outputs": [],
      "stateMutability": "nonpayable",
      "type": "function"
    }
  ],
  "bytecode": "0x608060405234801561001057600080fd5b5060405161297838038061297883398181016040528101906100329190610272565b806040518060400160405280600a81526020017f437265617469764f7073000000000000000000000000000000000000000000008152506040518060400160405280600481526020017f434f70730000000000000000000000000000000000000000000000000000000081525081600090816100ae91906104ef565b5080600190816100be91906104ef565b505050600073ffffffffffffffffffffffffffffffffffffffff168173ffffffffffffffffffffffffffffffffffffffff16036101335760006040517f1e4fbdf700000000000000000000000000000000000000000000000000000000815260040161012a91906105d0565b60405180910390fd5b6101428161014960201b60201c565b50506105eb565b6000600660009054906101000a900473ffffffffffffffffffffffffffffffffffffffff16905081600660006101000a81548173ffffffffffffffffffffffffffffffffffffffff021916908373ffffffffffffffffffffffffffffffffffffffff1602179055508173ffffffffffffffffffffffffffffffffffffffff168173ffffffffffffffffffffffffffffffffffffffff167f8be0079c531659141344cd1fd0a4f28419497f9722a3daafe3b4186f6b6457e060405160405180910390a35050565b600080fd5b600073ffffffffffffffffffffffffffffffffffffffff82169050919050565b600061023f82610214565b9050919050565b61024f81610234565b811461025a57600080fd5b50565b60008151905061026c81610246565b92915050565b6000602082840312156102885761028761020f565b5b60006102968482850161025d565b91505092915050565b600081519050919050565b7f4e487b7100000000000000000000000000000000000000000000000000000000600052604160045260246000fd5b7f4e487b7100000000000000000000000000000000000000000000000000000000600052602260045260246000fd5b6000600282049050600182168061032057607f821691505b602082108103610333576103326102d9565b5b50919050565b60008190508160005260206000209050919050565b60006020601f8301049050919050565b600082821b905092915050565b60006008830261039b7fffffffffffffffffffffffffffffffffffffffffffffffffffffffffffffffff8261035e565b6103a5868361035e565b95508019841693508086168417925050509392505050565b6000819050919050565b6000819050919050565b60006103ec6103e76103e2846103bd565b6103c7565b6103bd565b9050919050565b6000819050919050565b610406836103d1565b61041a610412826103f3565b84845461036b565b825550505050565b600090565b61042f610422565b61043a8184846103fd565b505050565b5b8181101561045e57610453600082610427565b600181019050610440565b5050565b601f8211156104a35761047481610339565b61047d8461034e565b8101602085101561048c578190505b6104a06104988561034e565b83018261043f565b50505b505050565b600082821c905092915050565b60006104c6600019846008026104a8565b1980831691505092915050565b60006104df83836104b5565b9150826002028217905092915050565b6104f88261029f565b67ffffffffffffffff811115610511576105106102aa565b5b61051b8254610308565b610526828285610462565b600060209050601f8311600181146105595760008415610547578287015190505b61055185826104d3565b8655506105b9565b601f19841661056786610339565b60005b8281101561058f5784890151825560018201915060208501945060208101905061056a565b868310156105ac57848901516105a8601f8916826104b5565b8355505b6001600288020188555050505b505050505050565b6105ca81610234565b82525050565b60006020820190506105e560008301846105c1565b92915050565b61237e806105fa6000396000f3fe6080604052600436106101405760003560e01c806370a08231116100b6578063b88d4fde1161006f578063b88d4fde14610448578063c87b56dd14610471578063e985e9c5146104ae578063f088d547146104eb578063f2fde38b14610507578063f4a0a5281461053057610140565b806370a082311461034a578063715018a6146103875780638da5cb5b1461039e57806395d89b41146103c9578063a035b1fe146103f4578063a22cb4651461041f57610140565b806323b872dd1161010857806323b872dd1461023e57806332cb6b0c1461026757806342842e0e1461029257806342966c68146102bb5780636352211e146102e45780636a6278421461032157610140565b806301ffc9a71461014557806306fdde0314610182578063081812fc146101ad578063095ea7b3146101ea57806318160ddd14610213575b600080fd5b34801561015157600080fd5b5061016c600480360381019061016791906119c0565b610559565b6040516101799190611a08565b60405180910390f35b34801561018e57600080fd5b5061019761063b565b6040516101a49190611ab3565b60405180910390f35b3480156101b957600080fd5b506101d460048036038101906101cf9190611b0b565b6106cd565b6040516101e19190611b79565b60405180910390f35b3480156101f657600080fd5b50610211600480360381019061020c9190611bc0565b6106e9565b005b34801561021f57600080fd5b506102286106ff565b6040516102359190611c0f565b60405180910390f35b34801561024a57600080fd5b5061026560048036038101906102609190611c2a565b610705565b005b34801561027357600080fd5b5061027c610807565b6040516102899190611c0f565b60405180910390f35b34801561029e57600080fd5b506102b960048036038101906102b49190611c2a565b61080d565b005b3480156102c757600080fd5b506102e260048036038101906102dd9190611b0b565b61082d565b005b3480156102f057600080fd5b5061030b60048036038101906103069190611b0b565b610844565b6040516103189190611b79565b60405180910390f35b34801561032d57600080fd5b5061034860048036038101906103439190611c7d565b610856565b005b34801561035657600080fd5b50610371600480360381019061036c9190611c7d565b6108cd565b60405161037e9190611c0f565b60405180910390f35b34801561039357600080fd5b5061039c610987565b005b3480156103aa57600080fd5b506103b361099b565b6040516103c09190611b79565b60405180910390f35b3480156103d557600080fd5b506103de6109c5565b6040516103eb9190611ab3565b60405180910390f35b34801561040057600080fd5b50610409610a57565b6040516104169190611c0f565b60405180910390f35b34801561042b57600080fd5b5061044660048036038101906104419190611cd6565b610a5d565b005b34801561045457600080fd5b5061046f600480360381019061046a9190611e4b565b610a73565b005b34801561047d57600080fd5b5061049860048036038101906104939190611b0b565b610a98565b6040516104a59190611ab3565b60405180910390f35b3480156104ba57600080fd5b506104d560048036038101906104d09190611ece565b610aa9565b6040516104e29190611a08565b60405180910390f35b61050560048036038101906105009190611c7d565b610b3d565b005b34801561051357600080fd5b5061052e60048036038101906105299190611c7d565b610bfd565b005b34801561053c57600080fd5b5061055760048036038101906105529190611b0b565b610c83565b005b60007f80ac58cd000000000000000000000000000000000000000000000000000000007bffffffffffffffffffffffffffffffffffffffffffffffffffffffff1916827bffffffffffffffffffffffffffffffffffffffffffffffffffffffff1916148061062457507f5b5e139f000000000000000000000000000000000000000000000000000000007bffffffffffffffffffffffffffffffffffffffffffffffffffffffff1916827bffffffffffffffffffffffffffffffffffffffffffffffffffffffff1916145b80610634575061063382610ce4565b5b9050919050565b60606000805461064a90611f3d565b80601f016020809104026020016040519081016040528092919081815260200182805461067690611f3d565b80156106c35780601f10610698576101008083540402835291602001916106c3565b820191906000526020600020905b8154815290600101906020018083116106a657829003601f168201915b5050505050905090565b60006106d882610d4e565b506106e282610dd6565b9050919050565b6106fb82826106f6610e13565b610e1b565b5050565b60075481565b600073ffffffffffffffffffffffffffffffffffffffff168273ffffffffffffffffffffffffffffffffffffffff16036107775760006040517f64a0ae9200000000000000000000000000000000000000000000000000000000815260040161076e9190611b79565b60405180910390fd5b600061078b8383610786610e13565b610e2d565b90508373ffffffffffffffffffffffffffffffffffffffff168173ffffffffffffffffffffffffffffffffffffffff1614610801578382826040517f64283d7b0000000000000000000000000000000000000000000000000000000081526004016107f893929190611f6e565b60405180910390fd5b50505050565b61271081565b61082883838360405180602001604052806000815250610a73565b505050565b61084060008261083b610e13565b610e2d565b5050565b600061084f82610d4e565b9050919050565b61085e611047565b612710600754106108a4576040517f08c379a000000000000000000000000000000000000000000000000000000000815260040161089b90611ff1565b60405180910390fd5b6001600760008282546108b79190612040565b925050819055506108ca816007546110ce565b50565b60008073ffffffffffffffffffffffffffffffffffffffff168273ffffffffffffffffffffffffffffffffffffffff16036109405760006040517f89c62b640000000000000000000000000000000000000000000000000000000081526004016109379190611b79565b60405180910390fd5b600360008373ffffffffffffffffffffffffffffffffffffffff1673ffffffffffffffffffffffffffffffffffffffff168152602001908152602001600020549050919050565b61098f611047565b61099960006111c7565b565b6000600660009054906101000a900473ffffffffffffffffffffffffffffffffffffffff16905090565b6060600180546109d490611f3d565b80601f0160208091040260200160405190810160405280929190818152602001828054610a0090611f3d565b8015610a4d5780601f10610a2257610100808354040283529160200191610a4d565b820191906000526020600020905b815481529060010190602001808311610a3057829003601f168201915b5050505050905090565b60085481565b610a6f610a68610e13565b838361128d565b5050565b610a7e848484610705565b610a92610a89610e13565b858585856113fc565b50505050565b6060610aa26115ad565b9050919050565b6000600560008473ffffffffffffffffffffffffffffffffffffffff1673ffffffffffffffffffffffffffffffffffffffff16815260200190815260200160002060008373ffffffffffffffffffffffffffffffffffffffff1673ffffffffffffffffffffffffffffffffffffffff16815260200190815260200160002060009054906101000a900460ff16905092915050565b6001600854610b4c9190612074565b341015610b8e576040517f08c379a0000000000000000000000000000000000000000000000000000000008152600401610b8590612102565b60405180910390fd5b61271060075410610bd4576040517f08c379a0000000000000000000000000000000000000000000000000000000008152600401610bcb9061216e565b60405180910390fd5b600160076000828254610be79190612040565b92505081905550610bfa816007546110ce565b50565b610c05611047565b600073ffffffffffffffffffffffffffffffffffffffff168173ffffffffffffffffffffffffffffffffffffffff1603610c775760006040517f1e4fbdf7000000000000000000000000000000000000000000000000000000008152600401610c6e9190611b79565b60405180910390fd5b610c80816111c7565b50565b610c8b611047565b60008111610cce576040517f08c379a0000000000000000000000000000000000000000000000000000000008152600401610cc5906121da565b60405180910390fd5b600181610cdb9190612074565b60088190555050565b60007f01ffc9a7000000000000000000000000000000000000000000000000000000007bffffffffffffffffffffffffffffffffffffffffffffffffffffffff1916827bffffffffffffffffffffffffffffffffffffffffffffffffffffffff1916149050919050565b600080610d5a836115cd565b9050600073ffffffffffffffffffffffffffffffffffffffff168173ffffffffffffffffffffffffffffffffffffffff1603610dcd57826040517f7e273289000000000000000000000000000000000000000000000000000000008152600401610dc49190611c0f565b60405180910390fd5b80915050919050565b60006004600083815260200190815260200160002060009054906101000a900473ffffffffffffffffffffffffffffffffffffffff169050919050565b600033905090565b610e28838383600161160a565b505050565b600080610e39846115cd565b9050600073ffffffffffffffffffffffffffffffffffffffff168373ffffffffffffffffffffffffffffffffffffffff1614610e7b57610e7a8184866117cf565b5b600073ffffffffffffffffffffffffffffffffffffffff168173ffffffffffffffffffffffffffffffffffffffff1614610f0c57610ebd60008560008061160a565b6001600360008373ffffffffffffffffffffffffffffffffffffffff1673ffffffffffffffffffffffffffffffffffffffff168152602001908152602001600020600082825403925050819055505b600073ffffffffffffffffffffffffffffffffffffffff168573ffffffffffffffffffffffffffffffffffffffff1614610f8f576001600360008773ffffffffffffffffffffffffffffffffffffffff1673ffffffffffffffffffffffffffffffffffffffff168152602001908152602001600020600082825401925050819055505b846002600086815260200190815260200160002060006101000a81548173ffffffffffffffffffffffffffffffffffffffff021916908373ffffffffffffffffffffffffffffffffffffffff160217905550838573ffffffffffffffffffffffffffffffffffffffff168273ffffffffffffffffffffffffffffffffffffffff167fddf252ad1be2c89b69c2b068fc378daa952ba7f163c4a11628f55a4df523b3ef60405160405180910390a4809150509392505050565b61104f610e13565b73ffffffffffffffffffffffffffffffffffffffff1661106d61099b565b73ffffffffffffffffffffffffffffffffffffffff16146110cc57611090610e13565b6040517f118cdaa70000000000000000000000000000000000000000000000000000000081526004016110c39190611b79565b60405180910390fd5b565b600073ffffffffffffffffffffffffffffffffffffffff168273ffffffffffffffffffffffffffffffffffffffff16036111405760006040517f64a0ae920000000000000000000000000000000000000000000000000000000081526004016111379190611b79565b60405180910390fd5b600061114e83836000610e2d565b9050600073ffffffffffffffffffffffffffffffffffffffff168173ffffffffffffffffffffffffffffffffffffffff16146111c25760006040517f73c6ac6e0000000000000000000000000000000000000000000000000000000081526004016111b99190611b79565b60405180910390fd5b505050565b6000600660009054906101000a900473ffffffffffffffffffffffffffffffffffffffff16905081600660006101000a81548173ffffffffffffffffffffffffffffffffffffffff021916908373ffffffffffffffffffffffffffffffffffffffff1602179055508173ffffffffffffffffffffffffffffffffffffffff168173ffffffffffffffffffffffffffffffffffffffff167f8be0079c531659141344cd1fd0a4f28419497f9722a3daafe3b4186f6b6457e060405160405180910390a35050565b600073ffffffffffffffffffffffffffffffffffffffff168273ffffffffffffffffffffffffffffffffffffffff16036112fe57816040517f5b08ba180000000000000000000000000000000000000000000000000000000081526004016112f59190611b79565b60405180910390fd5b80600560008573ffffffffffffffffffffffffffffffffffffffff1673ffffffffffffffffffffffffffffffffffffffff16815260200190815260200160002060008473ffffffffffffffffffffffffffffffffffffffff1673ffffffffffffffffffffffffffffffffffffffff16815260200190815260200160002060006101000a81548160ff0219169083151502179055508173ffffffffffffffffffffffffffffffffffffffff168373ffffffffffffffffffffffffffffffffffffffff167f17307eab39ab6107e8899845ad3d59bd9653f200f220920489ca2b5937696c31836040516113ef9190611a08565b60405180910390a3505050565b60008373ffffffffffffffffffffffffffffffffffffffff163b11156115a6578273ffffffffffffffffffffffffffffffffffffffff1663150b7a02868685856040518563ffffffff1660e01b815260040161145b949392919061224f565b6020604051808303816000875af192505050801561149757506040513d601f19601f8201168201806040525081019061149491906122b0565b60015b61151b573d80600081146114c7576040519150601f19603f3d011682016040523d82523d6000602084013e6114cc565b606091505b50600081510361151357836040517f64a0ae9200000000000000000000000000000000000000000000000000000000815260040161150a9190611b79565b60405180910390fd5b805160208201fd5b63150b7a0260e01b7bffffffffffffffffffffffffffffffffffffffffffffffffffffffff1916817bffffffffffffffffffffffffffffffffffffffffffffffffffffffff1916146115a457836040517f64a0ae9200000000000000000000000000000000000000000000000000000000815260040161159b9190611b79565b60405180910390fd5b505b5050505050565b606060405180608001604052806042815260200161230760429139905090565b60006002600083815260200190815260200160002060009054906101000a900473ffffffffffffffffffffffffffffffffffffffff169050919050565b80806116435750600073ffffffffffffffffffffffffffffffffffffffff168273ffffffffffffffffffffffffffffffffffffffff1614155b1561177757600061165384610d4e565b9050600073ffffffffffffffffffffffffffffffffffffffff168373ffffffffffffffffffffffffffffffffffffffff16141580156116be57508273ffffffffffffffffffffffffffffffffffffffff168173ffffffffffffffffffffffffffffffffffffffff1614155b80156116d157506116cf8184610aa9565b155b1561171357826040517fa9fbf51f00000000000000000000000000000000000000000000000000000000815260040161170a9190611b79565b60405180910390fd5b811561177557838573ffffffffffffffffffffffffffffffffffffffff168273ffffffffffffffffffffffffffffffffffffffff167f8c5be1e5ebec7d5bd14f71427d1e84f3dd0314c0f7b2291e5b200ac8c7c3b92560405160405180910390a45b505b836004600085815260200190815260200160002060006101000a81548173ffffffffffffffffffffffffffffffffffffffff021916908373ffffffffffffffffffffffffffffffffffffffff16021790555050505050565b6117da838383611893565b61188e57600073ffffffffffffffffffffffffffffffffffffffff168373ffffffffffffffffffffffffffffffffffffffff160361184f57806040517f7e2732890000000000000000000000000000000000000000000000000000000081526004016118469190611c0f565b60405180910390fd5b81816040517f177e802f0000000000000000000000000000000000000000000000000000000081526004016118859291906122dd565b60405180910390fd5b505050565b60008073ffffffffffffffffffffffffffffffffffffffff168373ffffffffffffffffffffffffffffffffffffffff161415801561194b57508273ffffffffffffffffffffffffffffffffffffffff168473ffffffffffffffffffffffffffffffffffffffff16148061190c575061190b8484610aa9565b5b8061194a57508273ffffffffffffffffffffffffffffffffffffffff1661193283610dd6565b73ffffffffffffffffffffffffffffffffffffffff16145b5b90509392505050565b6000604051905090565b600080fd5b600080fd5b60007fffffffff0000000000000000000000000000000000000000000000000000000082169050919050565b61199d81611968565b81146119a857600080fd5b50565b6000813590506119ba81611994565b92915050565b6000602082840312156119d6576119d561195e565b5b60006119e4848285016119ab565b91505092915050565b60008115159050919050565b611a02816119ed565b82525050565b6000602082019050611a1d60008301846119f9565b92915050565b600081519050919050565b600082825260208201905092915050565b60005b83811015611a5d578082015181840152602081019050611a42565b60008484015250505050565b6000601f19601f8301169050919050565b6000611a8582611a23565b611a8f8185611a2e565b9350611a9f818560208601611a3f565b611aa881611a69565b840191505092915050565b60006020820190508181036000830152611acd8184611a7a565b905092915050565b6000819050919050565b611ae881611ad5565b8114611af357600080fd5b50565b600081359050611b0581611adf565b92915050565b600060208284031215611b2157611b2061195e565b5b6000611b2f84828501611af6565b91505092915050565b600073ffffffffffffffffffffffffffffffffffffffff82169050919050565b6000611b6382611b38565b9050919050565b611b7381611b58565b82525050565b6000602082019050611b8e6000830184611b6a565b92915050565b611b9d81611b58565b8114611ba857600080fd5b50565b600081359050611bba81611b94565b92915050565b60008060408385031215611bd757611bd661195e565b5b6000611be585828601611bab565b9250506020611bf685828601611af6565b9150509250929050565b611c0981611ad5565b82525050565b6000602082019050611c246000830184611c00565b92915050565b600080600060608486031215611c4357611c4261195e565b5b6000611c5186828701611bab565b9350506020611c6286828701611bab565b9250506040611c7386828701611af6565b9150509250925092565b600060208284031215611c9357611c9261195e565b5b6000611ca184828501611bab565b91505092915050565b611cb3816119ed565b8114611cbe57600080fd5b50565b600081359050611cd081611caa565b92915050565b60008060408385031215611ced57611cec61195e565b5b6000611cfb85828601611bab565b9250506020611d0c85828601611cc1565b9150509250929050565b600080fd5b600080fd5b7f4e487b7100000000000000000000000000000000000000000000000000000000600052604160045260246000fd5b611d5882611a69565b810181811067ffffffffffffffff82111715611d7757611d76611d20565b5b80604052505050565b6000611d8a611954565b9050611d968282611d4f565b919050565b600067ffffffffffffffff821115611db657611db5611d20565b5b611dbf82611a69565b9050602081019050919050565b82818337600083830152505050565b6000611dee611de984611d9b565b611d80565b905082815260208101848484011115611e0a57611e09611d1b565b5b611e15848285611dcc565b509392505050565b600082601f830112611e3257611e31611d16565b5b8135611e42848260208601611ddb565b91505092915050565b60008060008060808587031215611e6557611e6461195e565b5b6000611e7387828801611bab565b9450506020611e8487828801611bab565b9350506040611e9587828801611af6565b925050606085013567ffffffffffffffff811115611eb657611eb5611963565b5b611ec287828801611e1d565b91505092959194509250565b60008060408385031215611ee557611ee461195e565b5b6000611ef385828601611bab565b9250506020611f0485828601611bab565b9150509250929050565b7f4e487b7100000000000000000000000000000000000000000000000000000000600052602260045260246000fd5b60006002820490506001821680611f5557607f821691505b602082108103611f6857611f67611f0e565b5b50919050565b6000606082019050611f836000830186611b6a565b611f906020830185611c00565b611f9d6040830184611b6a565b949350505050565b7f4d617820737570706c7920726561636865640000000000000000000000000000600082015250565b6000611fdb601283611a2e565b9150611fe682611fa5565b602082019050919050565b6000602082019050818103600083015261200a81611fce565b9050919050565b7f4e487b7100000000000000000000000000000000000000000000000000000000600052601160045260246000fd5b600061204b82611ad5565b915061205683611ad5565b925082820190508082111561206e5761206d612011565b5b92915050565b600061207f82611ad5565b915061208a83611ad5565b925082820261209881611ad5565b915082820484148315176120af576120ae612011565b5b5092915050565b7f496e76616c6964206d696e742066656500000000000000000000000000000000600082015250565b60006120ec601083611a2e565b91506120f7826120b6565b602082019050919050565b6000602082019050818103600083015261211b816120df565b9050919050565b7f4d6178205375706c792072656163686564000000000000000000000000000000600082015250565b6000612158601183611a2e565b915061216382612122565b602082019050919050565b600060208201905081810360008301526121878161214b565b9050919050565b7f496e76616c6964206d696e742070726963650000000000000000000000000000600082015250565b60006121c4601283611a2e565b91506121cf8261218e565b602082019050919050565b600060208201905081810360008301526121f3816121b7565b9050919050565b600081519050919050565b600082825260208201905092915050565b6000612221826121fa565b61222b8185612205565b935061223b818560208601611a3f565b61224481611a69565b840191505092915050565b60006080820190506122646000830187611b6a565b6122716020830186611b6a565b61227e6040830185611c00565b81810360608301526122908184612216565b905095945050505050565b6000815190506122aa81611994565b92915050565b6000602082840312156122c6576122c561195e565b5b60006122d48482850161229b565b91505092915050565b60006040820190506122f26000830185611b6a565b6122ff6020830184611c00565b939250505056fe697066733a2f2f6261666b72656963737062757a35716771656d6269697a6f69796c6d37696e777a736a376535656962326f7462616c6f70646863616c6873723634a2646970667358221220cc21cf5df9e46bab4e6648ee3375cb37d5161ac93f6659e77603da33a64586b964736f6c634300081c0033",
  "linkReferences": {},
  "deployedLinkReferences": {}
}