{
  "_format": "hh-sol-artifact-1",
  "contractName": "CreativOps",
  "sourceName": "contracts/CreativOps.sol",
  "abi": [
    {
      "inputs": [
        {
          "internalType": "address",
          "name": "initialOwner",
          "type": "address"
        }
      ],
      "stateMutability": "nonpayable",
      "type": "constructor"
    },
    {
      "inputs": [
        {
          "internalType": "address",
          "name": "sender",
          "type": "address"
        },
        {
          "internalType": "uint256",
          "name": "tokenId",
          "type": "uint256"
        },
        {
          "internalType": "address",
          "name": "owner",
          "type": "address"
        }
      ],
      "name": "ERC721IncorrectOwner",
      "type": "error"
    },
    {
      "inputs": [
        {
          "internalType": "address",
          "name": "operator",
          "type": "address"
        },
        {
          "internalType": "uint256",
          "name": "tokenId",
          "type": "uint256"
        }
      ],
      "name": "ERC721InsufficientApproval",
      "type": "error"
    },
    {
      "inputs": [
        {
          "internalType": "address",
          "name": "approver",
          "type": "address"
        }
      ],
      "name": "ERC721InvalidApprover",
      "type": "error"
    },
    {
      "inputs": [
        {
          "internalType": "address",
          "name": "operator",
          "type": "address"
        }
      ],
      "name": "ERC721InvalidOperator",
      "type": "error"
    },
    {
      "inputs": [
        {
          "internalType": "address",
          "name": "owner",
          "type": "address"
        }
      ],
      "name": "ERC721InvalidOwner",
      "type": "error"
    },
    {
      "inputs": [
        {
          "internalType": "address",
          "name": "receiver",
          "type": "address"
        }
      ],
      "name": "ERC721InvalidReceiver",
      "type": "error"
    },
    {
      "inputs": [
        {
          "internalType": "address",
          "name": "sender",
          "type": "address"
        }
      ],
      "name": "ERC721InvalidSender",
      "type": "error"
    },
    {
      "inputs": [
        {
          "internalType": "uint256",
          "name": "tokenId",
          "type": "uint256"
        }
      ],
      "name": "ERC721NonexistentToken",
      "type": "error"
    },
    {
      "inputs": [
        {
          "internalType": "address",
          "name": "owner",
          "type": "address"
        }
      ],
      "name": "OwnableInvalidOwner",
      "type": "error"
    },
    {
      "inputs": [
        {
          "internalType": "address",
          "name": "account",
          "type": "address"
        }
      ],
      "name": "OwnableUnauthorizedAccount",
      "type": "error"
    },
    {
      "anonymous": false,
      "inputs": [
        {
          "indexed": true,
          "internalType": "address",
          "name": "owner",
          "type": "address"
        },
        {
          "indexed": true,
          "internalType": "address",
          "name": "approved",
          "type": "address"
        },
        {
          "indexed": true,
          "internalType": "uint256",
          "name": "tokenId",
          "type": "uint256"
        }
      ],
      "name": "Approval",
      "type": "event"
    },
    {
      "anonymous": false,
      "inputs": [
        {
          "indexed": true,
          "internalType": "address",
          "name": "owner",
          "type": "address"
        },
        {
          "indexed": true,
          "internalType": "address",
          "name": "operator",
          "type": "address"
        },
        {
          "indexed": false,
          "internalType": "bool",
          "name": "approved",
          "type": "bool"
        }
      ],
      "name": "ApprovalForAll",
      "type": "event"
    },
    {
      "anonymous": false,
      "inputs": [
        {
          "indexed": true,
          "internalType": "address",
          "name": "previousOwner",
          "type": "address"
        },
        {
          "indexed": true,
          "internalType": "address",
          "name": "newOwner",
          "type": "address"
        }
      ],
      "name": "OwnershipTransferred",
      "type": "event"
    },
    {
      "anonymous": false,
      "inputs": [
        {
          "indexed": true,
          "internalType": "address",
          "name": "from",
          "type": "address"
        },
        {
          "indexed": true,
          "internalType": "address",
          "name": "to",
          "type": "address"
        },
        {
          "indexed": true,
          "internalType": "uint256",
          "name": "tokenId",
          "type": "uint256"
        }
      ],
      "name": "Transfer",
      "type": "event"
    },
    {
      "inputs": [],
      "name": "MAX_SUPPLY",
      "outputs": [
        {
          "internalType": "uint256",
          "name": "",
          "type": "uint256"
        }
      ],
      "stateMutability": "view",
      "type": "function"
    },
    {
      "inputs": [
        {
          "internalType": "address",
          "name": "to",
          "type": "address"
        },
        {
          "internalType": "uint256",
          "name": "tokenId",
          "type": "uint256"
        }
      ],
      "name": "approve",
      "outputs": [],
      "stateMutability": "nonpayable",
      "type": "function"
    },
    {
      "inputs": [
        {
          "internalType": "address",
          "name": "owner",
          "type": "address"
        }
      ],
      "name": "balanceOf",
      "outputs": [
        {
          "internalType": "uint256",
          "name": "",
          "type": "uint256"
        }
      ],
      "stateMutability": "view",
      "type": "function"
    },
    {
      "inputs": [
        {
          "internalType": "uint256",
          "name": "tokenId",
          "type": "uint256"
        }
      ],
      "name": "burn",
      "outputs": [],
      "stateMutability": "nonpayable",
      "type": "function"
    },
    {
      "inputs": [
        {
          "internalType": "address",
          "name": "to",
          "type": "address"
        }
      ],
      "name": "buy",
      "outputs": [],
      "stateMutability": "payable",
      "type": "function"
    },
    {
      "inputs": [
        {
          "internalType": "uint256",
          "name": "tokenId",
          "type": "uint256"
        }
      ],
      "name": "getApproved",
      "outputs": [
        {
          "internalType": "address",
          "name": "",
          "type": "address"
        }
      ],
      "stateMutability": "view",
      "type": "function"
    },
    {
      "inputs": [
        {
          "internalType": "address",
          "name": "owner",
          "type": "address"
        },
        {
          "internalType": "address",
          "name": "operator",
          "type": "address"
        }
      ],
      "name": "isApprovedForAll",
      "outputs": [
        {
          "internalType": "bool",
          "name": "",
          "type": "bool"
        }
      ],
      "stateMutability": "view",
      "type": "function"
    },
    {
      "inputs": [
        {
          "internalType": "address",
          "name": "to",
          "type": "address"
        }
      ],
      "name": "mint",
      "outputs": [],
      "stateMutability": "nonpayable",
      "type": "function"
    },
    {
      "inputs": [],
      "name": "name",
      "outputs": [
        {
          "internalType": "string",
          "name": "",
          "type": "string"
        }
      ],
      "stateMutability": "view",
      "type": "function"
    },
    {
      "inputs": [],
      "name": "owner",
      "outputs": [
        {
          "internalType": "address",
          "name": "",
          "type": "address"
        }
      ],
      "stateMutability": "view",
      "type": "function"
    },
    {
      "inputs": [
        {
          "internalType": "uint256",
          "name": "tokenId",
          "type": "uint256"
        }
      ],
      "name": "ownerOf",
      "outputs": [
        {
          "internalType": "address",
          "name": "",
          "type": "address"
        }
      ],
      "stateMutability": "view",
      "type": "function"
    },
    {
      "inputs": [],
      "name": "price",
      "outputs": [
        {
          "internalType": "uint256",
          "name": "",
          "type": "uint256"
        }
      ],
      "stateMutability": "view",
      "type": "function"
    },
    {
      "inputs": [],
      "name": "renounceOwnership",
      "outputs": [],
      "stateMutability": "nonpayable",
      "type": "function"
    },
    {
      "inputs": [
        {
          "internalType": "address",
          "name": "from",
          "type": "address"
        },
        {
          "internalType": "address",
          "name": "to",
          "type": "address"
        },
        {
          "internalType": "uint256",
          "name": "tokenId",
          "type": "uint256"
        }
      ],
      "name": "safeTransferFrom",
      "outputs": [],
      "stateMutability": "nonpayable",
      "type": "function"
    },
    {
      "inputs": [
        {
          "internalType": "address",
          "name": "from",
          "type": "address"
        },
        {
          "internalType": "address",
          "name": "to",
          "type": "address"
        },
        {
          "internalType": "uint256",
          "name": "tokenId",
          "type": "uint256"
        },
        {
          "internalType": "bytes",
          "name": "data",
          "type": "bytes"
        }
      ],
      "name": "safeTransferFrom",
      "outputs": [],
      "stateMutability": "nonpayable",
      "type": "function"
    },
    {
      "inputs": [
        {
          "internalType": "address",
          "name": "operator",
          "type": "address"
        },
        {
          "internalType": "bool",
          "name": "approved",
          "type": "bool"
        }
      ],
      "name": "setApprovalForAll",
      "outputs": [],
      "stateMutability": "nonpayable",
      "type": "function"
    },
    {
      "inputs": [
        {
          "internalType": "uint256",
          "name": "_price",
          "type": "uint256"
        }
      ],
      "name": "setMintPrice",
      "outputs": [],
      "stateMutability": "nonpayable",
      "type": "function"
    },
    {
      "inputs": [
        {
          "internalType": "bytes4",
          "name": "interfaceId",
          "type": "bytes4"
        }
      ],
      "name": "supportsInterface",
      "outputs": [
        {
          "internalType": "bool",
          "name": "",
          "type": "bool"
        }
      ],
      "stateMutability": "view",
      "type": "function"
    },
    {
      "inputs": [],
      "name": "symbol",
      "outputs": [
        {
          "internalType": "string",
          "name": "",
          "type": "string"
        }
      ],
      "stateMutability": "view",
      "type": "function"
    },
    {
      "inputs": [
        {
          "internalType": "uint256",
          "name": "",
          "type": "uint256"
        }
      ],
      "name": "tokenURI",
      "outputs": [
        {
          "internalType": "string",
          "name": "",
          "type": "string"
        }
      ],
      "stateMutability": "pure",
      "type": "function"
    },
    {
      "inputs": [],
      "name": "totalSupply",
      "outputs": [
        {
          "internalType": "uint256",
          "name": "",
          "type": "uint256"
        }
      ],
      "stateMutability": "view",
      "type": "function"
    },
    {
      "inputs": [
        {
          "internalType": "address",
          "name": "from",
          "type": "address"
        },
        {
          "internalType": "address",
          "name": "to",
          "type": "address"
        },
        {
          "internalType": "uint256",
          "name": "tokenId",
          "type": "uint256"
        }
      ],
      "name": "transferFrom",
      "outputs": [],
      "stateMutability": "nonpayable",
      "type": "function"
    },
    {
      "inputs": [
        {
          "internalType": "address",
          "name": "newOwner",
          "type": "address"
        }
      ],
      "name": "transferOwnership",
      "outputs": [],
      "stateMutability": "nonpayable",
      "type": "function"
    }
  ],
  "bytecode": "0x608060405234801561001057600080fd5b506040516129e03803806129e083398181016040528101906100329190610272565b806040518060400160405280600a81526020017f437265617469764f7073000000000000000000000000000000000000000000008152506040518060400160405280600481526020017f434f70730000000000000000000000000000000000000000000000000000000081525081600090816100ae91906104ef565b5080600190816100be91906104ef565b505050600073ffffffffffffffffffffffffffffffffffffffff168173ffffffffffffffffffffffffffffffffffffffff16036101335760006040517f1e4fbdf700000000000000000000000000000000000000000000000000000000815260040161012a91906105d0565b60405180910390fd5b6101428161014960201b60201c565b50506105eb565b6000600660009054906101000a900473ffffffffffffffffffffffffffffffffffffffff16905081600660006101000a81548173ffffffffffffffffffffffffffffffffffffffff021916908373ffffffffffffffffffffffffffffffffffffffff1602179055508173ffffffffffffffffffffffffffffffffffffffff168173ffffffffffffffffffffffffffffffffffffffff167f8be0079c531659141344cd1fd0a4f28419497f9722a3daafe3b4186f6b6457e060405160405180910390a35050565b600080fd5b600073ffffffffffffffffffffffffffffffffffffffff82169050919050565b600061023f82610214565b9050919050565b61024f81610234565b811461025a57600080fd5b50565b60008151905061026c81610246565b92915050565b6000602082840312156102885761028761020f565b5b60006102968482850161025d565b91505092915050565b600081519050919050565b7f4e487b7100000000000000000000000000000000000000000000000000000000600052604160045260246000fd5b7f4e487b7100000000000000000000000000000000000000000000000000000000600052602260045260246000fd5b6000600282049050600182168061032057607f821691505b602082108103610333576103326102d9565b5b50919050565b60008190508160005260206000209050919050565b60006020601f8301049050919050565b600082821b905092915050565b60006008830261039b7fffffffffffffffffffffffffffffffffffffffffffffffffffffffffffffffff8261035e565b6103a5868361035e565b95508019841693508086168417925050509392505050565b6000819050919050565b6000819050919050565b60006103ec6103e76103e2846103bd565b6103c7565b6103bd565b9050919050565b6000819050919050565b610406836103d1565b61041a610412826103f3565b84845461036b565b825550505050565b600090565b61042f610422565b61043a8184846103fd565b505050565b5b8181101561045e57610453600082610427565b600181019050610440565b5050565b601f8211156104a35761047481610339565b61047d8461034e565b8101602085101561048c578190505b6104a06104988561034e565b83018261043f565b50505b505050565b600082821c905092915050565b60006104c6600019846008026104a8565b1980831691505092915050565b60006104df83836104b5565b9150826002028217905092915050565b6104f88261029f565b67ffffffffffffffff811115610511576105106102aa565b5b61051b8254610308565b610526828285610462565b600060209050601f8311600181146105595760008415610547578287015190505b61055185826104d3565b8655506105b9565b601f19841661056786610339565b60005b8281101561058f5784890151825560018201915060208501945060208101905061056a565b868310156105ac57848901516105a8601f8916826104b5565b8355505b6001600288020188555050505b505050505050565b6105ca81610234565b82525050565b60006020820190506105e560008301846105c1565b92915050565b6123e6806105fa6000396000f3fe6080604052600436106101405760003560e01c806370a08231116100b6578063b88d4fde1161006f578063b88d4fde14610448578063c87b56dd14610471578063e985e9c5146104ae578063f088d547146104eb578063f2fde38b14610507578063f4a0a5281461053057610140565b806370a082311461034a578063715018a6146103875780638da5cb5b1461039e57806395d89b41146103c9578063a035b1fe146103f4578063a22cb4651461041f57610140565b806323b872dd1161010857806323b872dd1461023e57806332cb6b0c1461026757806342842e0e1461029257806342966c68146102bb5780636352211e146102e45780636a6278421461032157610140565b806301ffc9a71461014557806306fdde0314610182578063081812fc146101ad578063095ea7b3146101ea57806318160ddd14610213575b600080fd5b34801561015157600080fd5b5061016c600480360381019061016791906119c8565b610559565b6040516101799190611a10565b60405180910390f35b34801561018e57600080fd5b5061019761063b565b6040516101a49190611abb565b60405180910390f35b3480156101b957600080fd5b506101d460048036038101906101cf9190611b13565b6106cd565b6040516101e19190611b81565b60405180910390f35b3480156101f657600080fd5b50610211600480360381019061020c9190611bc8565b6106e9565b005b34801561021f57600080fd5b506102286106ff565b6040516102359190611c17565b60405180910390f35b34801561024a57600080fd5b5061026560048036038101906102609190611c32565b610705565b005b34801561027357600080fd5b5061027c610807565b6040516102899190611c17565b60405180910390f35b34801561029e57600080fd5b506102b960048036038101906102b49190611c32565b61080d565b005b3480156102c757600080fd5b506102e260048036038101906102dd9190611b13565b61082d565b005b3480156102f057600080fd5b5061030b60048036038101906103069190611b13565b610844565b6040516103189190611b81565b60405180910390f35b34801561032d57600080fd5b5061034860048036038101906103439190611c85565b610856565b005b34801561035657600080fd5b50610371600480360381019061036c9190611c85565b6108cd565b60405161037e9190611c17565b60405180910390f35b34801561039357600080fd5b5061039c610987565b005b3480156103aa57600080fd5b506103b361099b565b6040516103c09190611b81565b60405180910390f35b3480156103d557600080fd5b506103de6109c5565b6040516103eb9190611abb565b60405180910390f35b34801561040057600080fd5b50610409610a57565b6040516104169190611c17565b60405180910390f35b34801561042b57600080fd5b5061044660048036038101906104419190611cde565b610a5d565b005b34801561045457600080fd5b5061046f600480360381019061046a9190611e53565b610a73565b005b34801561047d57600080fd5b5061049860048036038101906104939190611b13565b610a98565b6040516104a59190611abb565b60405180910390f35b3480156104ba57600080fd5b506104d560048036038101906104d09190611ed6565b610aa9565b6040516104e29190611a10565b60405180910390f35b61050560048036038101906105009190611c85565b610b3d565b005b34801561051357600080fd5b5061052e60048036038101906105299190611c85565b610bf1565b005b34801561053c57600080fd5b5061055760048036038101906105529190611b13565b610c77565b005b60007f80ac58cd000000000000000000000000000000000000000000000000000000007bffffffffffffffffffffffffffffffffffffffffffffffffffffffff1916827bffffffffffffffffffffffffffffffffffffffffffffffffffffffff1916148061062457507f5b5e139f000000000000000000000000000000000000000000000000000000007bffffffffffffffffffffffffffffffffffffffffffffffffffffffff1916827bffffffffffffffffffffffffffffffffffffffffffffffffffffffff1916145b80610634575061063382610cec565b5b9050919050565b60606000805461064a90611f45565b80601f016020809104026020016040519081016040528092919081815260200182805461067690611f45565b80156106c35780601f10610698576101008083540402835291602001916106c3565b820191906000526020600020905b8154815290600101906020018083116106a657829003601f168201915b5050505050905090565b60006106d882610d56565b506106e282610dde565b9050919050565b6106fb82826106f6610e1b565b610e23565b5050565b60075481565b600073ffffffffffffffffffffffffffffffffffffffff168273ffffffffffffffffffffffffffffffffffffffff16036107775760006040517f64a0ae9200000000000000000000000000000000000000000000000000000000815260040161076e9190611b81565b60405180910390fd5b600061078b8383610786610e1b565b610e35565b90508373ffffffffffffffffffffffffffffffffffffffff168173ffffffffffffffffffffffffffffffffffffffff1614610801578382826040517f64283d7b0000000000000000000000000000000000000000000000000000000081526004016107f893929190611f76565b60405180910390fd5b50505050565b61271081565b61082883838360405180602001604052806000815250610a73565b505050565b61084060008261083b610e1b565b610e35565b5050565b600061084f82610d56565b9050919050565b61085e61104f565b612710600754106108a4576040517f08c379a000000000000000000000000000000000000000000000000000000000815260040161089b90611ff9565b60405180910390fd5b6001600760008282546108b79190612048565b925050819055506108ca816007546110d6565b50565b60008073ffffffffffffffffffffffffffffffffffffffff168273ffffffffffffffffffffffffffffffffffffffff16036109405760006040517f89c62b640000000000000000000000000000000000000000000000000000000081526004016109379190611b81565b60405180910390fd5b600360008373ffffffffffffffffffffffffffffffffffffffff1673ffffffffffffffffffffffffffffffffffffffff168152602001908152602001600020549050919050565b61098f61104f565b61099960006111cf565b565b6000600660009054906101000a900473ffffffffffffffffffffffffffffffffffffffff16905090565b6060600180546109d490611f45565b80601f0160208091040260200160405190810160405280929190818152602001828054610a0090611f45565b8015610a4d5780601f10610a2257610100808354040283529160200191610a4d565b820191906000526020600020905b815481529060010190602001808311610a3057829003601f168201915b5050505050905090565b60085481565b610a6f610a68610e1b565b8383611295565b5050565b610a7e848484610705565b610a92610a89610e1b565b85858585611404565b50505050565b6060610aa26115b5565b9050919050565b6000600560008473ffffffffffffffffffffffffffffffffffffffff1673ffffffffffffffffffffffffffffffffffffffff16815260200190815260200160002060008373ffffffffffffffffffffffffffffffffffffffff1673ffffffffffffffffffffffffffffffffffffffff16815260200190815260200160002060009054906101000a900460ff16905092915050565b600854341015610b82576040517f08c379a0000000000000000000000000000000000000000000000000000000008152600401610b79906120c8565b60405180910390fd5b61271060075410610bc8576040517f08c379a0000000000000000000000000000000000000000000000000000000008152600401610bbf90612134565b60405180910390fd5b600160076000828254610bdb9190612048565b92505081905550610bee816007546110d6565b50565b610bf961104f565b600073ffffffffffffffffffffffffffffffffffffffff168173ffffffffffffffffffffffffffffffffffffffff1603610c6b5760006040517f1e4fbdf7000000000000000000000000000000000000000000000000000000008152600401610c629190611b81565b60405180910390fd5b610c74816111cf565b50565b610c7f61104f565b60008111610cc2576040517f08c379a0000000000000000000000000000000000000000000000000000000008152600401610cb9906121a0565b60405180910390fd5b6103e8670de0b6b3a764000082610cd991906121c0565b610ce39190612231565b60088190555050565b60007f01ffc9a7000000000000000000000000000000000000000000000000000000007bffffffffffffffffffffffffffffffffffffffffffffffffffffffff1916827bffffffffffffffffffffffffffffffffffffffffffffffffffffffff1916149050919050565b600080610d62836115d5565b9050600073ffffffffffffffffffffffffffffffffffffffff168173ffffffffffffffffffffffffffffffffffffffff1603610dd557826040517f7e273289000000000000000000000000000000000000000000000000000000008152600401610dcc9190611c17565b60405180910390fd5b80915050919050565b60006004600083815260200190815260200160002060009054906101000a900473ffffffffffffffffffffffffffffffffffffffff169050919050565b600033905090565b610e308383836001611612565b505050565b600080610e41846115d5565b9050600073ffffffffffffffffffffffffffffffffffffffff168373ffffffffffffffffffffffffffffffffffffffff1614610e8357610e828184866117d7565b5b600073ffffffffffffffffffffffffffffffffffffffff168173ffffffffffffffffffffffffffffffffffffffff1614610f1457610ec5600085600080611612565b6001600360008373ffffffffffffffffffffffffffffffffffffffff1673ffffffffffffffffffffffffffffffffffffffff168152602001908152602001600020600082825403925050819055505b600073ffffffffffffffffffffffffffffffffffffffff168573ffffffffffffffffffffffffffffffffffffffff1614610f97576001600360008773ffffffffffffffffffffffffffffffffffffffff1673ffffffffffffffffffffffffffffffffffffffff168152602001908152602001600020600082825401925050819055505b846002600086815260200190815260200160002060006101000a81548173ffffffffffffffffffffffffffffffffffffffff021916908373ffffffffffffffffffffffffffffffffffffffff160217905550838573ffffffffffffffffffffffffffffffffffffffff168273ffffffffffffffffffffffffffffffffffffffff167fddf252ad1be2c89b69c2b068fc378daa952ba7f163c4a11628f55a4df523b3ef60405160405180910390a4809150509392505050565b611057610e1b565b73ffffffffffffffffffffffffffffffffffffffff1661107561099b565b73ffffffffffffffffffffffffffffffffffffffff16146110d457611098610e1b565b6040517f118cdaa70000000000000000000000000000000000000000000000000000000081526004016110cb9190611b81565b60405180910390fd5b565b600073ffffffffffffffffffffffffffffffffffffffff168273ffffffffffffffffffffffffffffffffffffffff16036111485760006040517f64a0ae9200000000000000000000000000000000000000000000000000000000815260040161113f9190611b81565b60405180910390fd5b600061115683836000610e35565b9050600073ffffffffffffffffffffffffffffffffffffffff168173ffffffffffffffffffffffffffffffffffffffff16146111ca5760006040517f73c6ac6e0000000000000000000000000000000000000000000000000000000081526004016111c19190611b81565b60405180910390fd5b505050565b6000600660009054906101000a900473ffffffffffffffffffffffffffffffffffffffff16905081600660006101000a81548173ffffffffffffffffffffffffffffffffffffffff021916908373ffffffffffffffffffffffffffffffffffffffff1602179055508173ffffffffffffffffffffffffffffffffffffffff168173ffffffffffffffffffffffffffffffffffffffff167f8be0079c531659141344cd1fd0a4f28419497f9722a3daafe3b4186f6b6457e060405160405180910390a35050565b600073ffffffffffffffffffffffffffffffffffffffff168273ffffffffffffffffffffffffffffffffffffffff160361130657816040517f5b08ba180000000000000000000000000000000000000000000000000000000081526004016112fd9190611b81565b60405180910390fd5b80600560008573ffffffffffffffffffffffffffffffffffffffff1673ffffffffffffffffffffffffffffffffffffffff16815260200190815260200160002060008473ffffffffffffffffffffffffffffffffffffffff1673ffffffffffffffffffffffffffffffffffffffff16815260200190815260200160002060006101000a81548160ff0219169083151502179055508173ffffffffffffffffffffffffffffffffffffffff168373ffffffffffffffffffffffffffffffffffffffff167f17307eab39ab6107e8899845ad3d59bd9653f200f220920489ca2b5937696c31836040516113f79190611a10565b60405180910390a3505050565b60008373ffffffffffffffffffffffffffffffffffffffff163b11156115ae578273ffffffffffffffffffffffffffffffffffffffff1663150b7a02868685856040518563ffffffff1660e01b815260040161146394939291906122b7565b6020604051808303816000875af192505050801561149f57506040513d601f19601f8201168201806040525081019061149c9190612318565b60015b611523573d80600081146114cf576040519150601f19603f3d011682016040523d82523d6000602084013e6114d4565b606091505b50600081510361151b57836040517f64a0ae920000000000000000000000000000000000000000000000000000000081526004016115129190611b81565b60405180910390fd5b805160208201fd5b63150b7a0260e01b7bffffffffffffffffffffffffffffffffffffffffffffffffffffffff1916817bffffffffffffffffffffffffffffffffffffffffffffffffffffffff1916146115ac57836040517f64a0ae920000000000000000000000000000000000000000000000000000000081526004016115a39190611b81565b60405180910390fd5b505b5050505050565b606060405180608001604052806042815260200161236f60429139905090565b60006002600083815260200190815260200160002060009054906101000a900473ffffffffffffffffffffffffffffffffffffffff169050919050565b808061164b5750600073ffffffffffffffffffffffffffffffffffffffff168273ffffffffffffffffffffffffffffffffffffffff1614155b1561177f57600061165b84610d56565b9050600073ffffffffffffffffffffffffffffffffffffffff168373ffffffffffffffffffffffffffffffffffffffff16141580156116c657508273ffffffffffffffffffffffffffffffffffffffff168173ffffffffffffffffffffffffffffffffffffffff1614155b80156116d957506116d78184610aa9565b155b1561171b57826040517fa9fbf51f0000000000000000000000000000000000000000000000000000000081526004016117129190611b81565b60405180910390fd5b811561177d57838573ffffffffffffffffffffffffffffffffffffffff168273ffffffffffffffffffffffffffffffffffffffff167f8c5be1e5ebec7d5bd14f71427d1e84f3dd0314c0f7b2291e5b200ac8c7c3b92560405160405180910390a45b505b836004600085815260200190815260200160002060006101000a81548173ffffffffffffffffffffffffffffffffffffffff021916908373ffffffffffffffffffffffffffffffffffffffff16021790555050505050565b6117e283838361189b565b61189657600073ffffffffffffffffffffffffffffffffffffffff168373ffffffffffffffffffffffffffffffffffffffff160361185757806040517f7e27328900000000000000000000000000000000000000000000000000000000815260040161184e9190611c17565b60405180910390fd5b81816040517f177e802f00000000000000000000000000000000000000000000000000000000815260040161188d929190612345565b60405180910390fd5b505050565b60008073ffffffffffffffffffffffffffffffffffffffff168373ffffffffffffffffffffffffffffffffffffffff161415801561195357508273ffffffffffffffffffffffffffffffffffffffff168473ffffffffffffffffffffffffffffffffffffffff16148061191457506119138484610aa9565b5b8061195257508273ffffffffffffffffffffffffffffffffffffffff1661193a83610dde565b73ffffffffffffffffffffffffffffffffffffffff16145b5b90509392505050565b6000604051905090565b600080fd5b600080fd5b60007fffffffff0000000000000000000000000000000000000000000000000000000082169050919050565b6119a581611970565b81146119b057600080fd5b50565b6000813590506119c28161199c565b92915050565b6000602082840312156119de576119dd611966565b5b60006119ec848285016119b3565b91505092915050565b60008115159050919050565b611a0a816119f5565b82525050565b6000602082019050611a256000830184611a01565b92915050565b600081519050919050565b600082825260208201905092915050565b60005b83811015611a65578082015181840152602081019050611a4a565b60008484015250505050565b6000601f19601f8301169050919050565b6000611a8d82611a2b565b611a978185611a36565b9350611aa7818560208601611a47565b611ab081611a71565b840191505092915050565b60006020820190508181036000830152611ad58184611a82565b905092915050565b6000819050919050565b611af081611add565b8114611afb57600080fd5b50565b600081359050611b0d81611ae7565b92915050565b600060208284031215611b2957611b28611966565b5b6000611b3784828501611afe565b91505092915050565b600073ffffffffffffffffffffffffffffffffffffffff82169050919050565b6000611b6b82611b40565b9050919050565b611b7b81611b60565b82525050565b6000602082019050611b966000830184611b72565b92915050565b611ba581611b60565b8114611bb057600080fd5b50565b600081359050611bc281611b9c565b92915050565b60008060408385031215611bdf57611bde611966565b5b6000611bed85828601611bb3565b9250506020611bfe85828601611afe565b9150509250929050565b611c1181611add565b82525050565b6000602082019050611c2c6000830184611c08565b92915050565b600080600060608486031215611c4b57611c4a611966565b5b6000611c5986828701611bb3565b9350506020611c6a86828701611bb3565b9250506040611c7b86828701611afe565b9150509250925092565b600060208284031215611c9b57611c9a611966565b5b6000611ca984828501611bb3565b91505092915050565b611cbb816119f5565b8114611cc657600080fd5b50565b600081359050611cd881611cb2565b92915050565b60008060408385031215611cf557611cf4611966565b5b6000611d0385828601611bb3565b9250506020611d1485828601611cc9565b9150509250929050565b600080fd5b600080fd5b7f4e487b7100000000000000000000000000000000000000000000000000000000600052604160045260246000fd5b611d6082611a71565b810181811067ffffffffffffffff82111715611d7f57611d7e611d28565b5b80604052505050565b6000611d9261195c565b9050611d9e8282611d57565b919050565b600067ffffffffffffffff821115611dbe57611dbd611d28565b5b611dc782611a71565b9050602081019050919050565b82818337600083830152505050565b6000611df6611df184611da3565b611d88565b905082815260208101848484011115611e1257611e11611d23565b5b611e1d848285611dd4565b509392505050565b600082601f830112611e3a57611e39611d1e565b5b8135611e4a848260208601611de3565b91505092915050565b60008060008060808587031215611e6d57611e6c611966565b5b6000611e7b87828801611bb3565b9450506020611e8c87828801611bb3565b9350506040611e9d87828801611afe565b925050606085013567ffffffffffffffff811115611ebe57611ebd61196b565b5b611eca87828801611e25565b91505092959194509250565b60008060408385031215611eed57611eec611966565b5b6000611efb85828601611bb3565b9250506020611f0c85828601611bb3565b9150509250929050565b7f4e487b7100000000000000000000000000000000000000000000000000000000600052602260045260246000fd5b60006002820490506001821680611f5d57607f821691505b602082108103611f7057611f6f611f16565b5b50919050565b6000606082019050611f8b6000830186611b72565b611f986020830185611c08565b611fa56040830184611b72565b949350505050565b7f4d617820737570706c7920726561636865640000000000000000000000000000600082015250565b6000611fe3601283611a36565b9150611fee82611fad565b602082019050919050565b6000602082019050818103600083015261201281611fd6565b9050919050565b7f4e487b7100000000000000000000000000000000000000000000000000000000600052601160045260246000fd5b600061205382611add565b915061205e83611add565b925082820190508082111561207657612075612019565b5b92915050565b7f496e76616c6964206d696e742066656500000000000000000000000000000000600082015250565b60006120b2601083611a36565b91506120bd8261207c565b602082019050919050565b600060208201905081810360008301526120e1816120a5565b9050919050565b7f4d6178205375706c792072656163686564000000000000000000000000000000600082015250565b600061211e601183611a36565b9150612129826120e8565b602082019050919050565b6000602082019050818103600083015261214d81612111565b9050919050565b7f496e76616c6964206d696e742070726963650000000000000000000000000000600082015250565b600061218a601283611a36565b915061219582612154565b602082019050919050565b600060208201905081810360008301526121b98161217d565b9050919050565b60006121cb82611add565b91506121d683611add565b92508282026121e481611add565b915082820484148315176121fb576121fa612019565b5b5092915050565b7f4e487b7100000000000000000000000000000000000000000000000000000000600052601260045260246000fd5b600061223c82611add565b915061224783611add565b92508261225757612256612202565b5b828204905092915050565b600081519050919050565b600082825260208201905092915050565b600061228982612262565b612293818561226d565b93506122a3818560208601611a47565b6122ac81611a71565b840191505092915050565b60006080820190506122cc6000830187611b72565b6122d96020830186611b72565b6122e66040830185611c08565b81810360608301526122f8818461227e565b905095945050505050565b6000815190506123128161199c565b92915050565b60006020828403121561232e5761232d611966565b5b600061233c84828501612303565b91505092915050565b600060408201905061235a6000830185611b72565b6123676020830184611c08565b939250505056fe697066733a2f2f6261666b72656963737062757a35716771656d6269697a6f69796c6d37696e777a736a376535656962326f7462616c6f70646863616c6873723634a2646970667358221220a5ce19a2365d712ef0819320cba63ba033c8cef0c29b2fb55226d8663e7819bb64736f6c634300081c0033",
  "linkReferences": {},
  "deployedLinkReferences": {}
}